S0120000647269766572732056312E737265636C
S11300000C942A000C943A020C9463020C948C0213
S11300100C9447000C9447000C9447000C949D03E7
S11300200C94C6030C94EF030C944F030C9420031C
S11300300C94F7020C947B040C94CE040C94A50449
S11300400C94A0000C9447000C9447000C944700B7
S11300500C94470011241FBECFE5D8E0DEBFCDBF0E
S113006010E0A0E6B0E0E6E3FAE002C005900D92ED
S1130070A036B107D9F720E0A0E6B0E001C01D9298
S1130080A538B207E1F70E9449000C9419050C94B5
S11300900000CF93DF93CDB7DEB764970FB6F89423
S11300A0DEBF0FBECDBF0F2EF0E6EF2EF9E0FF2E20
S11300B0F02D00E020E043E060E083E00E942304B0
S11300C001E020E040E060E081E00E94B50210E041
S11300D00E947704883011F411500AC08D3041F029
S11300E0E1E0F0E0EC0FFD1FE10FF11D80831F5FE5
S11300F08D3071F78981882359F3CE0101967C01F3
S1130100FC01E10FF11D10820E94E20284E1F7017B
S113011011928A95E9F710E0DBCFCF93C82F40E026
S113012060E00E94DB0087B1807E87B987B18C2BA9
S113013087B986B1806486B9C0936000CF91089571
S11301401F920F920FB60F9211242F933F934F9348
S11301505F936F937F938F939F93AF93BF93EF932B
S1130160FF93E0916200F0916300309771F084B1E5
S113017095B1099586B1806186B98091610081301D
S113018021F4809160000E948D00FF91EF91BF9156
S1130190AF919F918F917F916F915F914F913F911B
S11301A02F910F900FBE0F901F90189560E072E191
S11301B08AE790E008956130E1F138F0623009F4A3
S11301C06CC0633009F49DC00895413069F44AB3AA
S11301D021E030E0B90102C0660F771F8A95E2F78B
S11301E0CB01842B8ABB089541110EC04AB321E090
S11301F030E0B90102C0660F771F8A95E2F7CB01A0
S1130200809584238ABB0895423009F0ACC04BB377
S113021021E030E0B90102C0660F771F8A95E2F74A
S1130220CB01942F982B9BBB9AB3809589238ABBCF
S11302300895413069F447B321E030E0B90102C0C8
S1130240660F771F8A95E2F7CB01842B87BB08954D
S113025041110EC047B321E030E0B90102C0660F7E
S1130260771F8A95E2F7CB018095842387BB089595
S1130270423009F078C048B321E030E0B90102C04F
S1130280660F771F8A95E2F7CB01942F982B98BBC2
S113029097B38095892387BB0895413069F444B3AB
S11302A021E030E0B90102C0660F771F8A95E2F7BA
S11302B0CB01842B84BB089541110EC044B321E0CB
S11302C030E0B90102C0660F771F8A95E2F7CB01CF
S11302D08095842384BB0895423009F044C045B31B
S11302E021E030E0B90102C0660F771F8A95E2F77A
S11302F0CB01942F982B95BB94B38095892384BB11
S11303000895413069F441B321E030E0B90102C0FD
S1130310660F771F8A95E2F7CB01842B81BB089582
S113032041110EC041B321E030E0B90102C0660FB3
S1130330771F8A95E2F7CB018095842381BB0895CA
S1130340423089F442B321E030E0B90102C0660FC3
S1130350771F8A95E2F7CB01942F982B92BB91B328
S11303608095892381BB0895613039F138F062307A
S113037009F442C0633009F45EC00895413069F461
S11303804BB321E030E0B90102C0660F771F8A95B4
S1130390E2F7CB01842B8BBB089541116AC04BB3A8
S11303A021E030E0B90102C0660F771F8A95E2F7B9
S11303B0CB01809584238BBB0895413069F448B305
S11303C021E030E0B90102C0660F771F8A95E2F799
S11303D0CB01842B88BB089541114BC048B321E065
S11303E030E0B90102C0660F771F8A95E2F7CB01AE
S11303F08095842388BB0895413069F445B321E096
S113040030E0B90102C0660F771F8A95E2F7CB018D
S1130410842B85BB089541112CC045B321E030E005
S1130420B90102C0660F771F8A95E2F7CB01809568
S1130430842385BB0895413069F442B321E030E060
S1130440B90102C0660F771F8A95E2F7CB01842BAE
S113045082BB089541110DC042B321E030E0B901DF
S113046002C0660F771F8A95E2F7CB01809584233B
S113047082BB08951F920F920FB60F9211242F93EF
S11304803F934F935F936F937F938F939F93AF9318
S1130490BF93EF93FF93E0916400F0916500309770
S11304A009F00995FF91EF91BF91AF919F918F91C1
S11304B07F916F915F914F913F912F910F900FBE5C
S11304C00F901F9018951F920F920FB60F92112440
S11304D02F933F934F935F936F937F938F939F9348
S11304E0AF93BF93EF93FF93E0916600F0916700A1
S11304F0309709F00995FF91EF91BF91AF919F91CA
S11305008F917F916F915F914F913F912F910F90B8
S11305100FBE0F901F9018951F920F920FB60F9257
S113052011242F933F934F935F936F937F938F93F4
S11305309F93AF93BF93EF93FF93E0916800F09183
S11305406900309709F00995FF91EF91BF91AF9140
S11305509F918F917F916F915F914F913F912F91D7
S11305600F900FBE0F901F9018950F931F9381301B
S113057021F497B3906B97BB03C097B3906497BB78
S113058002FB992790F99EB9902F9B7F20E2629FEE
S11305908001112450E1859F9001112450E0440F03
S11305A0551F440F551F440F551F0064022B042B85
S11305B0092B04600DB91F910F9108958FB9779B92
S11305C0FECF08950F931F93CF938C01C0E003C017
S11305D00E94DE02CF5FF801EC0FF11D80818111D2
S11305E0F7CF0E94DE02CF911F910F9108951F92C1
S11305F00F920FB60F9211242F933F934F935F9353
S11306006F937F938F939F93AF93BF93EF93FF93D6
S1130610E0916A00F0916B00309709F00995FF9121
S1130620EF91BF91AF919F918F917F916F915F9166
S11306304F913F912F910F900FBE0F901F901895DF
S11306401F920F920FB60F9211242F933F934F9343
S11306505F936F937F938F939F93AF93BF93EF9326
S1130660FF93E0917100F0917200309709F00995C1
S113067088B7816088BF8091750082BFFF91EF9138
S1130680BF91AF919F918F917F916F915F914F91A6
S11306903F912F910F900FBE0F901F9018951F92AE
S11306A00F920FB60F9211242F933F934F935F93A2
S11306B06F937F938F939F93AF93BF93EF93FF9326
S11306C0809170008823F1F080916D008F5F80939A
S11306D06D0090916C00891738F040E060916F00D4
S11306E080916E000E94B40180916D00843688F080
S11306F041E060916F0080916E000E94B4011092FD
S11307006D0007C0E0917300F0917400309709F018
S1130710099588B7826088BFFF91EF91BF91AF912F
S11307209F918F917F916F915F914F913F912F9105
S11307300F900FBE0F901F9018951F920F920FB637
S11307400F9211242F933F934F935F936F937F9353
S11307508F939F93AF93BF93EF93FF93E0917D00AB
S1130760F0917E00309709F00995FF91EF91BF91C8
S1130770AF919F918F917F916F915F914F913F9135
S11307802F910F900FBE0F901F9018951F920F92EC
S11307900FB60F9211242F933F934F935F936F9350
S11307A07F938F939F93AF93BF93EF93FF93E091C6
S11307B07B00F0917C00309709F00995FF91EF914F
S11307C0BF91AF919F918F917F916F915F914F9165
S11307D03F912F910F900FBE0F901F9018951F926D
S11307E00F920FB60F9211242F933F934F935F9361
S11307F06F937F938F939F93AF93BF93EF93FF93E5
S1130800809178008F5F80937800E0917900F09177
S11308107A00309709F009958091760090917700DD
S11308209DBD8CBDFF91EF91BF91AF919F918F9131
S11308307F916F915F914F913F912F910F900FBED8
S11308400F901F901895DF92EF92FF920F931F93D2
S1130850CF93DF93D82E162FC42FD22F611110C03F
S11308600E94D600970122953295307F3227207F4F
S1130870322740E050E00E94F704215031090BC0B8
S11308800E94D6009701220F331F40E050E00E94DF
S1130890F7042150310980B58F7780BD30BD29B967
S11308A0DD0CDD0CDD0CDAB880B5806880BD80E439
S11308B0189FB001112480E1D89F9001112410E009
S11308C0000F111F000F111F000F111F4C2F50E0BC
S11308D0440F551F6068622B062B402B40BDDF91EF
S11308E0CF911F910F91FF90EF90DF9008955F9B40
S11308F0FECF8CB108951F920F920FB60F92112460
S11309002F933F934F935F936F937F938F939F9313
S1130910AF93BF93EF93FF93E0917F00F09180003A
S1130920309711F08CB10995FF91EF91BF91AF9180
S11309309F918F917F916F915F914F913F912F91F3
S11309400F900FBE0F901F9018951F920F920FB625
S11309500F9211242F933F934F935F936F937F9341
S11309608F939F93AF93BF93EF93FF93E091830093
S1130970F0918400309709F00995FF91EF91BF91B0
S1130980AF919F918F917F916F915F914F913F9123
S11309902F910F900FBE0F901F9018951F920F92DA
S11309A00FB60F9211242F933F934F935F936F933E
S11309B07F938F939F93AF93BF93EF93FF93E091B4
S11309C08100F0918200309709F00995FF91EF9131
S11309D0BF91AF919F918F917F916F915F914F9153
S11309E03F912F910F900FBE0F901F901895A1E289
S11309F01A2EAA1BBB1BFD010DC0AA1FBB1FEE1F95
S1130A00FF1FA217B307E407F50720F0A21BB30BDF
S1130A10E40BF50B661F771F881F991F1A9469F75B
S1130A2060957095809590959B01AC01BD01CF01B7
S1090A300895F894FFCFC5
S9030000FC
